:100000000C94FA030C9417040C9417040C94170422
:100010000C9417040C9417040C9417040C941704F4
:100020000C9417040C9417040C9417040C941704E4
:100030000C9417040C9417040C9417040C941704D4
:100040000C9417040C9417040C9417040C941704C4
:100050000C941704000000000000000000000000E5
:100060000000000000000000000000000000000090
:100070000000000000050B10161C21272D32383D12
:1000800043494E545A5F656A70767B81878C92979C
:100090009DA3A8AE000B16212D38434E5A65707BE8
:1000A00087929DA8000B16212C38434E5A65707B11
:1000B00086929DA800102132435465768797A80543
:1000C000162738495A6A7B8C9DAE0B1C2D3D4E5F1E
:1000D000708192A300162D435A70879D00162C4301
:1000E0005A70869D00162D435970869D00162D432B
:1000F0005970879D001C3854708CA8102C4965815C
:100100009D05213D597692AE16324E6A87A30B2784
:10011000435F7B970021436587A816385A7B9D0B68
:100120002D4E70920021436587A816385A7B9D0B8F
:100130002C4E709200274E769D10385F86AE214976
:1001400070970B325981A81C436A92052C547BA3EB
:10015000163D658C002D5A87002C5A86002D598635
:10016000002D5987002C5A87B32C5986002D5A86AA
:10017000B32C5A870032659716497BAE2D5F9210DB
:100180004376A8275A8C0B3D70A321548605386A04
:100190009D1C4E81003870A82C659D215992164EE9
:1001A000870B437BB33870A82D659D215A92164E5C
:1001B000860B437B003D7B0543810B4986104E8CAB
:1001C0001654921C5997215F9D2765A32C6AA8326B
:1001D00070AE3876004387165A9D2D7000438716FF
:1001E0005A9D2C70004386165A9D2C70004386162B
:1001F000599D2D700049922770054E972D760B540E
:100200009D327B105AA33881165FA83D861C65AECF
:10021000438C216A004E9D388621700B59A8439269
:100220002C7B1665B34E9D388621700B59A84392DE
:100230002C7B16650054A8499D3D923287277B1C74
:10024000701065055AAE4EA34397388C2D812176E8
:10025000166A0B5F0000AE005C010B02B902670377
:100260001504C2046F051C06C80674071F08C908D8
:1002700073091C0AC40A6B0B120CB70C5C0DFF0D42
:10028000A20E430FE30F82101F11BB115612F01282
:1002900087131E14B3144615D7156716F516821763
:1002A0000C1895181B19A019231AA31A221B9F1B9F
:1002B000191C911C071D7B1DEC1D5B1EC81E321FE7
:1002C0009A1FFF1F6220C22020217B21D4212A22D5
:1002D0007D22CE221B236723AF23F52337247724E7
:1002E000B424EF2426255B258C25BB25E6250F2687
:1002F0003526582678269426AE26C526D926E92600
:10030000F726022709270E2710270E27092702277D
:10031000F726E926D926C526AE269426782658261D
:1003200035260F26E625BB258C255B252625EF24C3
:10033000B42477243724F523AF2367231B23CE224D
:100340007D222A22D4217B212021C2206220FF1F6E
:100350009A1F321FC81E5B1EEC1D7B1D071D911CC2
:10036000191C9F1B221BA31A231AA0191B199518CD
:100370000C188217F5166716D7154615B3141E14F8
:100380008713F0125612BB111F118210E30F430F97
:10039000A20EFF0D5C0DB70C120C6B0BC40A1C0AED
:1003A0007309C9081F087407C8061C066F05C20434
:1003B00015046703B9020B025C01AE00000052FF96
:1003C000A4FEF5FD47FD99FCEBFB3EFB91FAE4F939
:1003D00038F98CF8E1F737F78DF6E4F53CF595F44C
:1003E000EEF349F3A4F201F25EF1BDF01DF07EEFF1
:1003F000E1EE45EEAAED10ED79ECE2EB4DEBBAEA59
:1004000029EA99E90BE97EE8F4E76BE7E5E660E6BF
:10041000DDE55DE5DEE461E4E7E36FE3F9E285E273
:1004200014E2A5E138E1CEE066E001E09EDF3EDFC8
:10043000E0DE85DE2CDED6DD83DD32DDE5DC99DC39
:1004400051DC0BDCC9DB89DB4CDB11DBDADAA5DA4A
:1004500074DA45DA1ADAF1D9CBD9A8D988D96CD9A6
:1004600052D93BD927D917D909D9FED8F7D8F2D80C
:10047000F0D8F2D8F7D8FED809D917D927D93BD95F
:1004800052D96CD988D9A8D9CBD9F1D91ADA45DA99
:1004900074DAA5DADADA11DB4CDB89DBC9DB0BDCD9
:1004A00051DC99DCE5DC32DD83DDD6DD2CDE85DE5A
:1004B000E0DE3EDF9EDF01E066E0CEE038E1A5E170
:1004C00014E285E2F9E26FE3E7E361E4DEE45DE58F
:1004D000DDE560E6E5E66BE7F4E77EE80BE999E940
:1004E00029EABAEA4DEBE2EB78EC10EDAAED45EE25
:1004F000E1EE7EEF1DF0BDF05EF101F2A4F249F3F2
:10050000EEF395F43CF5E4F58DF637F7E1F78CF86A
:1005100038F9E4F991FA3EFBEBFB99FC47FDF5FD58
:10052000A4FE52FF10270E2709270227F726E926E7
:10053000D926C526AE2694267826582635260F2697
:10054000E625BB258C255B252625EF24B4247724BE
:100550003724F523AF2367231B23CE227D222A22B3
:10056000D4217B212021C2206220FF1F9A1F321F2D
:10057000C81E5B1EEC1D7B1D071D911C191C9F1BBB
:10058000221BA31A231AA0191B1995180C188217DD
:10059000F5166716D7154615B3141E148813F012F6
:1005A0005612BB111F118210E30F430FA20EFF0D55
:1005B0005C0DB70C120C6B0BC40A1C0A7309C9083A
:1005C0001F087407C8061C066F05C20415046703DC
:1005D000B9020B025C01AE00000052FFA4FEF5FD63
:1005E00047FD99FCEBFB3EFB91FAE4F938F98CF8F6
:1005F000E1F737F78DF6E4F53CF595F4EEF349F3C2
:10060000A4F201F25EF1BDF01DF07EEFE1EE45EEE9
:10061000AAED10ED79ECE2EB4DEBBAEA29EA99E9A3
:100620000BE97EE8F4E76BE7E5E660E6DDE55DE52E
:10063000DEE461E4E7E36FE3F9E285E214E2A5E1D9
:1006400038E1CEE066E001E09EDF3EDFE0DE85DE01
:100650002CDED6DD83DD32DDE5DC99DC51DC0BDC24
:10066000C9DB89DB4CDB11DBDADAA5DA74DA45DACF
:100670001ADAF1D9CBD9A8D988D96CD952D93BD9B2
:1006800027D917D909D9FED8F7D8F2D8F0D8F2D897
:10069000F7D8FED809D917D927D93BD952D96CD95F
:1006A00088D9A8D9CBD9F1D91ADA45DA74DAA5DA1A
:1006B000DADA11DB4CDB89DBC9DB0BDC51DC99DCE2
:1006C000E5DC32DD83DDD6DD2CDE85DEE0DE3EDFFF
:1006D0009EDF01E066E0CEE038E1A5E114E285E2CC
:1006E000F9E26FE3E7E361E4DEE45DE5DDE560E6C2
:1006F000E5E66BE7F4E77EE80BE999E929EABAEA6F
:100700004DEBE2EB78EC10EDAAED45EEE1EE7EEF7D
:100710001DF0BDF05EF101F2A4F249F3EEF395F4A1
:100720003CF5E4F58DF637F7E1F78CF838F9E4F9A4
:1007300091FA3EFBEBFB99FC47FDF5FDA4FE52FF51
:100740000000AE005C010B02B90267031504C2048D
:100750006F051C06C80674071F08C90873091C0A20
:10076000C40A6B0B120CB70C5C0DFF0DA20E430FED
:10077000E30F82101F11BB115612F01288131E14C2
:10078000B3144615D7156716F51682170C18951869
:100790001B19A019231AA31A221B9F1B191C911C99
:1007A000071D7B1DEC1D5B1EC81E321F9A1FFF1FFD
:1007B0006220C22020217B21D4212A227D22CE2228
:1007C0001B236723AF23F52337247724B424EF2496
:1007D00026255B258C25BB25E6250F2635265826A4
:1007E00078269426AE26C526D926E926F72602279E
:1007F00009270E2711241FBECFE5D8E0DEBFCDBFED
:1008000010E0A0E6B0E0ECE0FEE002C005900D9242
:10081000A238B107D9F721E0A2E8B0E001C01D92EB
:10082000A23AB207E1F70E94E0050C9404070C9489
:1008300000002F923F924F925F926F927F928F9221
:100840009F92AF92BF92CF92DF92EF92FF920F935F
:100850001F93CF93DF93CDB7DEB72C970FB6F894E5
:10086000DEBF0FBECDBF02E810E084E590E09A87BE
:1008700089870F2EF2E82F2EF1E03F2EF02D7FC05A
:10088000F7016490F60181919191A191B1916F016D
:100890008B839C83AD83BE83712CC301880F991F0A
:1008A000880F991F9C878B87FC01EC5DFA4FA591FF
:1008B000B4919F819983E885EA832B813C814D81A6
:1008C0005E810E94C006D8018D909D90AD90BC9035
:1008D000860E971EA81EB91EF80180829182A28200
:1008E000B382EB85FC85EC5AFD4FA591B4915095F0
:1008F0004095309521953F4F4F4F5F4F0E94C00666
:10090000D80114964D905D906D907C901797460E8F
:10091000571E681E791EF8014482558266827782CE
:10092000FFEFEF1AFF0A2C143D0409F0A9CFC5010F
:10093000B40120E032EE44E050E00E94A106A9811B
:10094000BA812D933D934D935C931397C301B201EC
:1009500020E032EE44E050E00E94A106E981FA81F5
:100960002483358346835783085F1F4F89859A8583
:1009700080969A87898791E00230190759F00F2EE7
:10098000F2E0CF2EF1E0DF2EF02DE984FA840F8320
:10099000188776CF2C960FB6F894DEBF0FBECDBF6A
:1009A000DF91CF911F910F91FF90EF90DF90CF904B
:1009B000BF90AF909F908F907F906F905F904F907F
:1009C0003F902F900895969A85E08A95F1F7000060
:1009D00096980895CF93C82F959887EC90E001974B
:1009E000F1F700C0000085B39C2F92959F70807F27
:1009F000892B85BB0E94E30485B3807FC82BC5BBD0
:100A00000E94E304CF91089581E00E94EA048FE1FF
:100A10009EE40197F1F700C0000008958FE084BBC9
:100A200081B3806681BBAC9A8FE59AEE0197F1F7AE
:100A300000C0000080E30E94EA048FE99FE0019774
:100A4000F1F700C0000080E30E94EA048FE891E023
:100A50000197F1F700C0000080E30E94EA0488E2F9
:100A60000E94EA0488E20E94EA048CE00E94EA0400
:100A70000E94040586E00E94EA040895CF93C82FDF
:100A8000959A87EC90E00197F1F700C0000085B3DC
:100A90009C2F92959F70807F892B85BB0E94E304D9
:100AA00085B3807FC82BC5BB0E94E304CF91089516
:100AB0001F93CF93DF9380E40E94EA0412E0D1E019
:100AC00013C0C8E080E00E943E05C150CD13FACFAC
:100AD000DD2341F0CD2F8FEF0E943E05C150D9F7A5
:100AE000193028F41F5FDF5FD83058F3F1CFDF9162
:100AF000CF911F910895CF93DF93EC01613021F4E2
:100B000080E80E94EA0403C080EC0E94EA04888125
:100B1000882331F021960E943E0589918111FBCFF7
:100B2000DF91CF91089589E08EBD80E293E09BBD77
:100B30008ABD089580EC87B980E886B90895CF937F
:100B4000DF9300D000D0CDB7DEB7369A349A84B1A7
:100B500090E09A83898385B190E09C838B838B811D
:100B60009C81982F88279C838B8329813A818B8154
:100B70009C81822B932B9C838B838B819C810F90F8
:100B80000F900F900F90DF91CF91089581E088BB77
:100B90002FEF89E698E1215080409040E1F700C0B6
:100BA000000018BA089582E088BB2FEF89E698E12B
:100BB000215080409040E1F700C0000018BA08952D
:100BC00087E087BB0E940E050E9458050E94C6055B
:100BD0000E949A050E94D3050E9493050E94C605B3
:100BE00061E080E690E00E947B0562E081E790E0B2
:100BF0000E947B050E94C6050E94D3050E94040541
:100C000002E811E00F2EF2E0AF2EF1E0BF2EF02D42
:100C10006894662465F80F2EF7E07F2EF02D0F2ED6
:100C2000F2E9CF2EF1E0DF2EF02D0F2EF2EAEF2EBB
:100C3000F1E0FF2EF02D1DBC1CBC88B7806188BF81
:100C4000C2E0D1E008B604FEFDCF0E949F05092E48
:100C5000000CAA0BBB0B89939993A993B99388B7FE
:100C6000806188BFC017D10769F70E94190480EC22
:100C70000E94EA04EAE8F0E0C3E9D1E00F2EF3E8CD
:100C80008F2EF1E09F2EF02D9401CE01DF014081E7
:100C900051816281738177235CF4709560955095E2
:100CA00041955F4F6F4F7F4F4083518362837383C2
:100CB00014964D915D916D917C91179777236CF40B
:100CC00070956095509541955F4F6F4F7F4F14968B
:100CD0004D935D936D937C9317975C9114964C9113
:100CE000450F46954695483058F04850483018F41E
:100CF000D9014C9302C0D9017C92DC017C9204C0E2
:100D0000D9016C92DC014C93389601962F5F3F4FCE
:100D1000EA15FB0509F0BACF80E80E94EA04F40165
:100D200081914F010E943E05C814D904C1F780EC9F
:100D30000E94EA0489910E943E05CE15DF05D1F795
:100D40007ACF052E97FB1EF400940E94B80657FD3B
:100D500007D00E94C80607FC03D04EF40C94B806D6
:100D600050954095309521953F4F4F4F5F4F0895D7
:100D700090958095709561957F4F8F4F9F4F089507
:100D8000B7FF0C94EA060E94EA06821B930B0895B3
:100D9000A1E21A2EAA1BBB1BFD010DC0AA1FBB1F7F
:100DA000EE1FFF1FA217B307E407F50720F0A21BF1
:100DB000B30BE40BF50B661F771F881F991F1A945E
:100DC00069F760957095809590959B01AC01BD0188
:100DD000CF0108950E94F506A59F900DB49F900D38
:100DE000A49F800D911D11240895A29FB001B39F6F
:100DF000C001A39F700D811D1124911DB29F700D24
:0C0E0000811D1124911D0895F894FFCF6E
:100E0C00444654205350454354524F4D455445523B
:100E1C000030487A202D2031304B487A2831362941
:020E2C000000C4
:00000001FF
